:100000000C9496020C94DD020C94DD020C94DD023B
:100010000C94DD020C94DD020C94DD020C94DD02E4
:100020000C94DD020C94DD020C9489210C945D2269
:100030000C94221C0C94DD020C94DD020C94DD0265
:100040000C94DD020C94DD020C94DD020C94DD02B4
:100050000C94DD020C94791C0C94DD020C94DD02EE
:100060000C94DD020C94DD020C94DD020C94DD0294
:100070000C94DD020C94DD020C94DD020C94DD0284
:100080000C94DD020C94DD020C94DD020C94DD0274
:100090000C94DD020C94DD020C94DD020C94DD0264
:1000A0000C94DD020C94DD020C94DD02165C2B0036
:1000B00014001A000800150017005F0060002B04F0
:1000C000390004001600070009000A005C005D000A
:1000D0000000D75C1D001B00060019000500590038
:1000E0005A000000E0000000E2002C410000E300A4
:1000F00000006200610000001C0018000C001200EB
:10010000130033002A005E0036000B000D000E00C5
:100110000F002D00000028005B00370005001100D3
:100120001000360037003800D85C2C42000028420E
:10013000000000006500000000004C42005C01006F
:1001400001003B003C003D003E002B002900010067
:10015000E2003F00400041004200430054005500CF
:100160000000010001000100010001004C00330209
:100170002E0000000100000001000100000001004D
:10018000000022023100000001004B0052004E002E
:1001900001000100010056004C004A0050005100CF
:1001A0004F002A00000001002E022A0001004D002D
:1001B0000100010001000100010028000000010011
:1001C000000000000100000000000100A90035024D
:1001D0001E021F0220022102220240004100AA004A
:1001E00001001E001F002000210022003D003E00F3
:1001F00000002F00010001000100010001003A0091
:100200003B000000010000000100010000000100AF
:1002100000004300420000002302240225022602BF
:100220002702310001003F0039002300240025008F
:1002300026002700000001003C0053005400330258
:1002400001000100010001003000B20000000100C7
:10025000000000000100000000000100010001009A
:100260000100010001000100010001000100010086
:100270000100010001000100010001000100010076
:100280000000010001000100010001000100010067
:100290000100000001000000010001000000010059
:1002A0000000010001000000010001000100010048
:1002B0000100010001000100010001000100010036
:1002C0000100010000000100010001000100010027
:1002D0000100010001000100010001000000010017
:1002E000000000000100000000000100000000000C
:1002F000000000002A2B2800000000000000000081
:100300000000000000000029000000002C1E342026
:10031000212224342627252E362D3738271E1F204C
:100320002122232425263333362E37381F04050691
:100330000708090A0B0C0D0E0F10111213141516D5
:100340001718191A1B1C1D2F3130232D35040506D3
:100350000708090A0B0C0D0E0F10111213141516B5
:100360001718191A1B1C1D2F3130354C00000000C6
:10037000000000000000000000000000000000007D
:10038000000000000000000000000000000000006D
:100390007E0F00D4FFFFFFC7000000782C0374001D
:1003A00065006E0061006C006900630065005F001D
:1003B00061006D00620069006400650078007400EF
:1003C00072006F00750073000000120343006500A7
:1003D0007200620065006B006F0073000000040390
:1003E000090409025B00030100A0FA0904000001EE
:1003F00003010100092111010001224000070581CC
:100400000308000A09040100020300000009211189
:1004100001000122220007058203200001070503D5
:10042000032000010904020001030000000921115A
:10043000010001227B000705840320000A1201004D
:1004400002000000081071401001000102000106C6
:1004500060FF0961A1010962150026FF0095207562
:100460000881020963150026FF0095207508910296
:10047000C005010902A10185020901A100050919B0
:10048000012908150025019508750181020501095A
:100490003009311581257F950275088106093815C7
:1004A00081257F950175088106050C0A38021581A2
:1004B000257F950175088106C0C005010980A1014D
:1004C000850319012AB700150126B700950175109B
:1004D0008100C0050C0901A101850419012AA002AF
:1004E000150126A002950175108100C005010906BD
:1004F000A101050719E029E71500250195087501F7
:1005000081029501750881010507190029FF150071
:1005100026FF009506750881000508190129059533
:100520000575019102950175039101C011241FBE4B
:10053000CFEFDAE0DEBFCDBF04B603FE27C0809167
:10054000720290917302A0917402B091750287308B
:10055000904BA740B04BD1F41092720210927302EC
:10056000109274021092750214BE84B7877F84BF04
:100570000FB6F894A8958091600088618093600020
:10058000109260000FBEE0E0F8E3099511E0A0E0F2
:10059000B1E0E6E8F9E402C005900D92A839B10790
:1005A000D9F722E0A8E9B1E001C01D92A237B20755
:1005B000E1F70E94AA130C9486240C94000008957D
:1005C0000C94DF0208950C94E202E82FF0E0EE0FA5
:1005D000FF1FE656FE4F8081918108950895FF9296
:1005E0000F931F93CF93DF93AEE1B1E0ED0161E094
:1005F00070E08991E82FE295EF70F0E041A18F70F3
:100600009B0101C0220F8A95EAF7922F90959423BF
:1006100091A382A1822B82A381E0C632D80749F739
:10062000C5E1D1E02EE131E0AE0161E070E0FA0118
:100630008191AF01E82FE295EF70F0E0F1A08F70AB
:100640008B0101C0000F8A95EAF7902F90959F21AA
:1006500091A382A1802B82A32417350741F761E083
:1006600070E08991E82FE295EF70F0E011A18F70B2
:10067000AB0101C0440F8A95EAF7942F909591231E
:1006800091A382A1842B82A32C173D0751F761E02F
:1006900070E08D91E82FE295EF70F0E041A18F704E
:1006A0009B0101C0220F8A95EAF7922F909594231F
:1006B00091A382A1822B82A3F1E0A632BF0749F762
:1006C000EAEAF1E0AAE9B1E08AEB91E01192119235
:1006D0001D921D928E179F07C9F788E00E94701324
:1006E000DF91CF911F910F91FF900C941D053F92C8
:1006F0004F925F926F927F928F929F92AF92BF9232
:10070000CF92DF92EF92FF920F931F93CF93DF93DD
:1007100000D000D0CDB7DEB70AEA11E01A83098312
:1007200022EB422E21E0522E0EE111E01B82EE243C
:10073000E394F12CA981BA816D907C9011971D9260
:100740001D92BA83A983F80181918F01E82FE29568
:10075000EF70F0E091A18F70570101C0AA0C8A954B
:10076000EAF7892F8A2981A382A13A2C3094832128
:1007700082A320EA2A95F1F745E151E06A0190E071
:1007800080E0BD0162507109D6012D916D012C836D
:1007900022952F7030E0D90190962C91DB018D903D
:1007A0009C9030E0BC81BF70BC8302C0359527951A
:1007B000BA95E2F720FDC2C09701082E02C0220FB1
:1007C000331F0A94E2F728293929DB0111963C935B
:1007D0002E93019689309105B9F681A1382231A274
:1007E00082A1A82AA2A281E02D913C91261537056D
:1007F00009F480E0BB81B82BBB83E981FA814E16F6
:100800005F0609F097CF30E020E061E070E092E20F
:10081000892E91E0992EDA018D91AD01E82FE295B4
:10082000EF70F0E0A1A18F708B0102C0000F111FCB
:100830008A95E2F7C8019A2F982B91A392A18095EF
:10084000892382A310EA1A95F1F77B01022E02C0D8
:10085000EE0CFF1C0A94E2F75701A094B094E2EB6F
:10086000F1E08EE1482E81E0582E19826F0100815F
:100870001181D2017D902D01872D82958F7090E09E
:10088000DC0190968C9190E0B72DBF7002C09595D9
:100890008795BA95E2F780FD54C0C8018E299F293B
:1008A000918380833296D6018D919C910817190708
:1008B00011F0B1E0B98384149504C1F6FA013197BF
:1008C0008081E82FE295EF70F0E011A18F70DB01DD
:1008D00001C0AA0F8A95EAF79A2F9095912391A3C8
:1008E00082A18A2B82A30B811981012B0B832F5F9D
:1008F0003F4F2930310509F08ECF202F48E06AE9BB
:1009000071E08AEA91E00E9471130E9423058B81B5
:100910000F900F900F900F90DF91CF911F910F913B
:10092000FF90EF90DF90CF90BF90AF909F908F900F
:100930007F906F905F904F903F90089530E020E05F
:1009400042CFC8018A219B21ABCF81E0089581E08D
:1009500008950C94A70408950C94AB041F93CF93AF
:10096000DF9300D000D00F92CDB7DEB749835A8312
:100970006B833091BA0189819A8131111DC0662340
:10098000B9F02223A9F00E940B0B182F682F898140
:100990009A810E94B70A69817A81812F0F900F9006
:1009A0000F900F900F90DF91CF911F910C944F18E3
:1009B0000E94E30A182FEFCF0E940B0B69817A8106
:1009C000EDCFFC01262F40815181628173818481AA
:1009D0000C94AE0481E00895CF93DF93EC0160E0C6
:1009E0000E94E104BE01DF91CF910C94AC04E1E0E0
:1009F000F0E0DF0102C0AA0FBB1F6A95E2F7BD015C
:100A0000DF0102C0AA0FBB1F4A95E2F76A2B01C0A3
:100A1000EE0F2A95EAF7962F9823961302C08E2B95
:100A20000895E0958E230895242F462F682F8091F6
:100A3000D6010E94F7040C94740A0E9456130E9477
:100A400065060C94E0020C94E30208950E940C0ADF
:100A50000E9425052FEF84E39CE0215080409040C8
:100A6000E1F700C000000C949D1C0F931F93CF93DF
:100A7000DF938C0161E00E94E104EC01B8010E9467
:100A800097168823D9F1B801CE010E94A9048823C2
:100A9000A9F1B801CE010E948619882379F1B80125
:100AA000CE010E94D819882349F1B801CE010E94D5
:100AB000FB1A882319F1F8018281882361F0CA3575
:100AC000FDE5DF0721F170F4C115ECE5DE07A1F0CB
:100AD000CE3DDC45C9F0C801DF91CF911F910F9148
:100AE0000C94A504CB358DE5D807A1F0CC35DD45B8
:100AF00091F70E94D30EEFCF0E94260580E0DF9190
:100B0000CF911F910F9108950E944910F7CF0E9435
:100B1000DC0EE1CF0E94DF0EDECFDF92EF92FF927C
:100B20000F931F93CF93DF93E82FF0E0E451FD4F35
:100B3000D490282F26952695269530E0F901E45784
:100B4000FC4F0491877010E0082E02C015950795A0
:100B50000A94E2F701701127F901E458FC4FE49080
:100B6000F12C082E02C0F594E7940A94E2F791E084
:100B7000E922FF24F901E459FC4FC491D0E002C0FE
:100B8000D595C7958A95E2F7C170DD270115110546
:100B900019F081EE0E94B106E114F10419F086EE1D
:100BA0000E94B1068D2D0E94B007EF2819F086EE45
:100BB0000E944307012B19F081EE0E944307CD2BC1
:100BC00051F08CE2DF91CF911F910F91FF90EF9048
:100BD000DF900C94B007DF91CF911F910F91FF90A0
:100BE000EF90DF900895EF92FF920F931F93CF93B2
:100BF000DF93EC01162F0AE08881882309F454C0A2
:100C0000813009F04EC08981813099F47E0122E063
:100C1000E20EF11C8A810E94B007E7012196812F24
:100C2000815050F3EFE9FFE03197F1F700C0000089
:100C3000F7CF823041F47E0182E0E80EF11C8A8118
:100C40000E94B106EACF833041F47E01E2E0EE0E6D
:100C5000F11C8A810E944307E0CF843011F0219675
:100C6000DDCF2A81229690E080E0AE014F5F5F4F9A
:100C70002053330B2A30310548F0019778F2EFE921
:100C8000FFE03197F1F700C00000F7CF089FB001F7
:100C9000099F700D1124C901860F971F2981EA0150
:100CA000E4CF0E948D05BACFDF91CF911F910F91B4
:100CB000FF90EF90089560E00C94F30508950C9474
:100CC0005E0681E008950C9461060895CF93C82FC5
:100CD0000E945F068C2FCF910C946306CF93DF9315
:100CE000CDB7DEB72B970FB6F894DEBF0FBECDBFE2
:100CF0004F83588769877A878B8761110E94020F1B
:100D00001E821D8285E0FE013796DE01119601905C
:100D10000D928A95E1F78C819D81892B89F4498117
:100D20005A816B817C818D819E810E94020E2B965F
:100D30000FB6F894DEBF0FBECDBFDF91CF910895FF
:100D400089819A8189238F3F51F3CE0101960E94B8
:100D5000EA048111E4CFEBCFFC01808191810C94F6
:100D6000380BCF93C82F882309F48BC08238C1F485
:100D70000E942A1B81FD85C089E30E949C0E0E946F
:100D8000320F2FEF81EE94E0215080409040E1F748
:100D900000C0000089E30E94A30ECF910C94320F93
:100DA0008338A1F40E942A1B80FD6BC083E50E945A
:100DB0009C0E0E94320F2FEF81EE94E02150804074
:100DC0009040E1F700C0000083E5E5CF8438A1F44E
:100DD0000E942A1B82FD55C087E40E949C0E0E943F
:100DE000320F2FEF81EE94E0215080409040E1F7E8
:100DF00000C0000087E4CFCF8CEF8C0F813A90F4D5
:100E00006C2F80910001909101010E948D1B88231D
:100E100029F08C2F0E94A30E0E94320F8C2F0E946B
:100E20009C0EBBCF80E28C0F883048F4C77081E005
:100E300001C0880FCA95EAF70E94E50EAECFEBE538
:100E4000EC0FE33040F4F0E0EC5AFE4F808190E08C
:100E5000CF910C944F1BE8E5EC0FE73150F4F0E034
:100E6000EE0FFF1FEA5DFE4F80819181CF910C94C0
:100E7000651BC03F30F08C2F0E943814CF910C942A
:100E80000B15CF910895882309F452C0823871F46C
:100E90000E942A1B81FF4CC089E30E949C0E0E9485
:100EA000320F89E30E94A30E0C94320F833859F459
:100EB0000E942A1B80FF3CC083E50E949C0E0E947A
:100EC000320F83E5EFCF843859F40E942A1B82FF4A
:100ED0002FC087E40E949C0E0E94320F87E4E2CF6D
:100EE0009CEF980F913AF0F290E2980F983050F4FE
:100EF000877091E001C0990F8A95EAF7892F0E94C7
:100F0000EB0ED2CF9BE5980F933020F490E080E079
:100F10000C944F1B98E5980F973120F490E080E0F7
:100F20000C94651B803F20F00E9492140C940B15CA
:100F300008951F93CF93DF93182FEB010E94B10602
:100F4000209731F4812FDF91CF911F910C944307AB
:100F50008FE99FE00197F1F700C000002197F0CFE3
:100F600070E060E0893311F460E570E00C9499075B
:100F7000882321F00E94E50E0C94320F08958823F7
:100F800021F00E94EB0E0C94320F0895BF92CF9285
:100F9000DF92EF92FF920F931F93CF93DF936C0139
:100FA000D62FC72FFC011281058102950F700E9478
:100FB000BA0EE82E8823A1F0E12E112389F08C2FA0
:100FC000807F803429F080E28D0FE12C883040F062
:100FD00082E00E94830F0E94BA0E91E0E82EE9267B
:100FE000BC2EB2949FE0B922EB2DF0E0E857FB4D08
:100FF0000C9423240C2F0F70C07F11F00295007FFA
:101000001123A9F0002359F080E28D0F883010F0F1
:10101000D11109C0802F0E94E50E0E94320F8D2F42
:101020000E94B10614C0802F0E94F50EF6CF8D2FBE
:101030000E944307002359F080E28D0F883010F0A2
:10104000D1112CC0802F0E94EB0E0E94320F2B2D4D
:101050002850330B2430310520F40E942A1B0E94B3
:101060006606EE2009F479C10E94B60E80FD75C1B6
:10107000F60112820E94B00E0E94850AC6010E94EB
:10108000CE090E94B00EDF91CF911F910F91FF907A
:10109000EF90DF90CF90BF900C94900A802F0E9429
:1010A000FB0ED3CFFC2FFF70FF2EC07FC03219F094
:1010B000F29480EFF822DD2369F0D13049F1112359
:1010C00091F1002351F1F601858180FFA8CF8F7047
:1010D000858323C0112381F0011106C00E94150FE2
:1010E0008F290E94B807B3CF0130C1F70E94150FB6
:1010F0008F290E941B0FABCF011106C00E94280F41
:101100008F2D0E94BF07A3CF013009F4A0CFF6CFE7
:10111000112329F0063008F09ACF8F2DE2CF053049
:1011200008F095CFEDCF002359F3D93349F4FFEF01
:1011300027EE33E0F15020403040E1F700C00000DE
:101140008D2F0E94430783CF8C2F869586958370C1
:1011500069F0813009F07BCF8D2F9C2F9370111196
:1011600002C090E080E00E94651B71CF8D2F9C2F04
:101170009370111102C090E080E00E944F1B67CF76
:101180008D2F112329F00E9438140E940B155FCF78
:101190000E949214FACF8C2F837079F5111157CFDA
:1011A0004D2F429546954770440F440F8D2F8F70F9
:1011B000042E01C0880F0A94EAF72D2F2071D4FF66
:1011C00007C02FE030E001C0220F4A95EAF72095D2
:1011D000C695C695C370822BC23049F058F4C13011
:1011E00019F00E94660A33CF0E94610A30CF0E9434
:1011F0006B0A2DCF0E945F0A2ACF8695112311F02A
:101200008C2F8170882309F422CF4D2F429546956B
:101210004770440F440F8D2F8F70042E01C0880F2C
:101220000A94EAF72D2F2071D4FF07C02FE030E099
:1012300001C0220F4A95EAF72095C695C695C3705E
:10124000822BC23049F058F4C13019F00E94AC0A28
:10125000FECE0E94A70AFBCE0E94B10AF8CE0E94E1
:10126000740AF5CECF70112329F08C2F0E94850AC5
:101270008D2F37CF8D2F0E94BF078C2F0E94900A91
:10128000E6CED23F89F160F4D03FC9F0D13F29F1D9
:10129000112309F442C00111C2CE8C2F8F7121C0DD
:1012A000D33F39F1D43FA1F7112369F1CF718C2FCE
:1012B0000E94850A63E08C2F0E94680FC8CE11231C
:1012C00041F0053008F0C3CE8C2F8F710E949C0A2C
:1012D000BECE063008F0BBCEF7CF8C2F8F71112316
:1012E00069F20E94850AB3CE8C2F8F711123C9F346
:1012F000C5CF112329F08C2F8F710E947D0AA7CEB4
:101300000E947A0AA4CE81E00E94830F023008F482
:101310009ECE82E00E94830F9ACE002359F0D933EB
:1013200009F00ECF8FEF97EEE3E081509040E04060
:10133000E1F704CF8C2F8F71A1CF4C2F4F706D2F01
:10134000C6010E943F110E94660B81CE4C2F4F7048
:101350006D2FC6010E9442117ACEDF91CF911F916D
:101360000F91FF90EF90DF90CF90BF9008950F9373
:101370001F93CF93DF93EC01688179818A810E946A
:10138000420B8C010E94B60A0E945E0AB801CE018F
:10139000DF91CF911F910F910C94C607CF93DF93EC
:1013A000EC018B819C81892B29F08881998189238B
:1013B0008F3F59F4DF91CF910895CE010E94B70974
:1013C000CE01DF91CF910C94EC04CE010E94350543
:1013D0008111F3CF0E94BA0E882361F38A8188239A
:1013E00049F382E0DF91CF910C94830F90E080E08D
:1013F0000E944F1B90E080E00E94651B0E94020F3C
:101400000E94120F0E94320F0E9432160C940B158C
:101410000E94AA0E0C94F6090E94F20E0C94080A7F
:10142000E92FE295EF70E250EE3070F4F0E0E8560C
:10143000FB4D0C942324803F19F020F4883E20F4C7
:1014400081E00895843FE1F380E00895883EC0F391
:10145000813FD1F7F5CF93FB882780F90895FC01F0
:10146000808191810E94380B0C94100ACF93DF93F6
:1014700000D000D00F92CDB7DEB70F900F900F9035
:101480000F900F90DF91CF910895CF93DF9300D00D
:1014900000D000D0CDB7DEB726960FB6F894DEBFE9
:1014A0000FBECDBFDF91CF91089508950C94550ADA
:1014B0000E94560A8093D7010C94F60908950C9463
:1014C000580A9091D701892B0C94580A9091D70112
:1014D00089230C94580A9091D70189270C94580AB3
:1014E0000C94550A0C94700A0E94720A8093D601DB
:1014F0000C94F60980E00C94740A91E001C0990FF5
:101500008A95EAF7892F0C94740A21E030E001C033
:10151000220F8A95EAF78091D601822B0C94740AE7
:1015200021E030E001C0220F8A95EAF720958091F2
:10153000D60182230C94740A21E030E001C0220F0E
:101540008A95EAF78091D60182270C94740A9091CB
:10155000D601892B0C94740A9091D60189230C949E
:10156000740A9091D60189270C94740A089529E091
:10157000929F800D1124982F977041E001C0440F75
:101580009A95EAF786958695869593E0899FF0016E
:101590001124E554FE4F90E080E070E05191DF01AE
:1015A00011979B01082E02C0369527950A94E2F701
:1015B000217021952527242325272C9301968330FC
:1015C000910561F7089529E0929F800D1124982FCD
:1015D000977086958695869523E0829FF001112469
:1015E000E554FE4F50E040E080E0219130E0092ECC
:1015F00002C0369527950A94E2F721703327042E0E
:1016000001C0220F0A94EAF7822B4F5F5F4F4330ED
:10161000510559F70895CF92DF92FF920F931F93D0
:10162000CF93DF936C010091D6018091D701082BF5
:10163000C7E0D0E010E0FC2EC8010C2E02C095954A
:1016400087950A94E2F780FD0CC02197A0F7F12C52
:101650008F2DDF91CF911F910F91FF90DF90CF9051
:101660000895B6018C2F0E945E12019771F3F0CF9E
:10167000CF93DF93EC010E940B0BBE01DF91CF9162
:101680000C945E121F93CF93DF93EB019091BA01FC
:10169000992331F0CB01DF91CF911F910C94380B3E
:1016A000882379F0CB010E940B0B182F682FCE01F5
:1016B0000E94B70ABE01812FDF91CF911F910C9438
:1016C0005E12CB010E94E30A182FF4CFEF92FF9233
:1016D0000F931F93CF93DF938C01892B81F0F12C13
:1016E000EE24E394E8012196F8018491843770F4A4
:1016F000843008F05FC08130B1F08230A1F1DF9119
:10170000CF911F910F91FF90EF900895853709F4C5
:101710004CC008F43DC09CE7980F903780F78F7756
:101720000E94430749C00E5F1F4FFE01849190E263
:10173000980F983060F48770FE2D01C0FF0F8A95D6
:10174000EAF78F2F0E94050F0E94320F02C00E94FD
:10175000B1068F2D815030F2EFE9FFE03197F1F7BC
:1017600000C00000F7CF0E5F1F4FFE01849190E292
:10177000980F983050F48770FE2D01C0FF0F8A95A6
:10178000EAF78F2F0E940B0FDFCF0E944307E1CFB4
:101790000E5F1F4FFE01C491C150D8F28FE99FE048
:1017A0000197F1F700C00000F7CF0E5F1F4FFE0159
:1017B000F490CFCF0E94B1068E01CBCF1F93CF9371
:1017C000DF93C091D80116E08091D9018C1304C039
:1017D000DF91CF911F910895D0E01C9FF0011D9FD4
:1017E000F00D1124E652FE4F4081518162817381D8
:1017F000848195810E94450A2196C770E5CF40916A
:101800000A0250910B0260910C0270910D028091BE
:101810000E0290910F020C94450A1F93CF93DF9311
:1018200080910F02807FA9F480910C02882389F0B7
:101830008091D801C091D90160910A0270910B0288
:10184000A0910D02B0910E02D62FD72316E0C81337
:1018500004C0DF91CF911F91089590E0109711F08F
:10186000DF3F19F401968770F2CF189F9001199FFE
:10187000300D1124F901E652FE4F41814713F2CF9A
:1018800040814613EFCF42814111ECCF4381548117
:101890004A1B5B0B483C510528F780910F028F7063
:1018A000806180930F02F901E152FE4F80818F70B9
:1018B000806180838AE092E00E94CE09DF91CF911F
:1018C0001F910C94DE0BAF92BF92CF92DF92EF92FA
:1018D000FF920F931F93CF93DF93CDB7DEB761973E
:1018E0000FB6F894DEBF0FBECDBF8C0185E0F801C6
:1018F000DE011D9601900D928A95E1F7F801E280D4
:101900008AE0C82E82E0D82E60910D0270910E02FE
:101910006115710509F45AC190910A0220910B02D8
:10192000892F82238F3F09F451C140815181A380C7
:10193000B480F0900C02F501E61BF70BFF2009F4D0
:10194000F6C080910F02382F307FE83CF10508F097
:10195000AFC0311179C0FE2C251323C0941321C0D0
:10196000E1101FC08F70806180930F020E94FF0BF7
:10197000C6010E94CE0980910F02F80185838F2D48
:1019800061960FB6F894DEBF0FBECDBFDF91CF9149
:101990001F910F91FF90EF90DF90CF90BF90AF908D
:1019A0000895AB2829F0842F85238F3F09F027C1A4
:1019B00080E0F82FF170DF2E80FF3CC08091D801CD
:1019C0002091D90136E0821315C04D875E878D8541
:1019D0009E850E94380B292F22952F702230F0F01F
:1019E000243018F59F70F1F0F8019581907FD1F4C3
:1019F000D12C1EC090E0389FF001399FF00D1124CA
:101A0000E652FE4F6181651306C06081641303C016
:101A10006281E6120FC001968770D5CF9F7011F0DA
:101A2000882331F3805E883018F3C8010E94CE0904
:101A3000FD2CA5CFEE2009F4A2CF80910F0281608A
:101A400080930F02F12C9BCF251306C0941304C082
:101A5000F801EE2009F487C0C8010E942F0A8823EC
:101A600019F1EE2009F180910F02803270F020917F
:101A70000A0230910B0238872F831986BB86AA860B
:101A80008C87CE0107960E94CE0986E0F801AAE075
:101A9000B2E001900D928A95E1F70E940D0C0E9430
:101AA000FF0BFF24F3946BCFC8010E94CE09F9CF3E
:101AB000311113C07A2DB98AA88A6E2D89890E94A6
:101AC000360A8AE092E00E94CE0986E0F601119281
:101AD0008A95E9F70E94FF0BB5CF25130FC0941329
:101AE0000DC0E1100BC0F8018583C8010E94CE092A
:101AF00086E0F60111928A95E9F741CFC8010E946C
:101B00002F0A882389F2EE2079F280910F02803229
:101B100008F4BBCF20910A0230910B023A8329834B
:101B20001B82BD82AC828E83CE010196ACCFE83C95
:101B3000F10508F03EC0FE2CEE2009F4B5CF2513C8
:101B40002AC0941328C080910F0280FD1BC0982FDB
:101B5000907FC1F0F8018583903F31F0982F907FFE
:101B6000905F8F70892B8583C8010E94CE0986E023
:101B7000F801AAE0B2E001900D928A95E1F70E9487
:101B8000FF0BFDCE86E0F801AAE0B2E001900D92D5
:101B90008A95E1F7F4CEC8010E942F0A811175CF12
:101BA00080910F02816080930F02C8010E94CE09CC
:101BB000E6CE7A2DB98AA88A6E2D89890E94360AC6
:101BC00086E0F60111928A95E9F7D9CFEE2009F463
:101BD0006BCFC8010E942F0AF82E882309F464CF26
:101BE00086E0F801AAE0B2E001900D928A95E1F753
:101BF0008AE092E00E94AC060E940D0CC0CF81E00A
:101C00008E25D7CE1F93CF93DF93CDB7DEB72C971A
:101C10000FB6F894DEBF0FBECDBF4F8358876987DC
:101C20007A878B879C87CE0107960E94630C882356
:101C300069F08A859B85892B39F04F815885842FDF
:101C400085238F3F09F071C016E05FC086E0FE017A
:101C50003796DE01119601900D928A95E1F78A85FB
:101C60009B85892B89F38F81988589238F3F61F329
:101C70002091D90130E0C9010196877099274091E0
:101C8000D8014817190671F40E940C0A1092D90164
:101C90001092D80186E0EAE0F2E0DF011D928A9519
:101CA000E9F7D2CF96E0929FD001939FB00D112417
:101CB000A652BE4FFE01319601900D929A95E1F722
:101CC0008093D9010E94DE0BBFCF819FC0011124F8
:101CD00086529E4F0E94630C8823E9F0E091D80160
:101CE0001E9FF0011124E652FE4F40815181628116
:101CF0007381848195810E94450A8091D80190E08A
:101D00000196877099278093D8018091D80190918E
:101D1000D9018913DACF2C960FB6F894DEBF0FBE27
:101D2000CDBFDF91CF911F91089569857A858B850D
:101D30009C850E94450A88CF682F80910001909170
:101D400001010C94C31B682F809100019091010147
:101D50000C94C51B80910001909101010C94C71B4C
:101D60008091100285958595859508958091100242
:101D70008770089590911002977081E009F480E0D7
:101D800008959091600292FB222720F9281751F0C4
:101D900080FB92F99093600280915F0290916002C3
:101DA0000C94C60F08958091600282FB882780F909
:101DB00091E089270C94C10E81E00C94C10E80E063
:101DC0000C94C10E80911C02089590911C02892BE5
:101DD00080931C020895809590911C029823909303
:101DE0001C02089510921C02089590911B02892BE9
:101DF00080931B020895809590911B0298239093E5
:101E00001B02089510921B02089590911A02892BCB
:101E100080931A020895809590911A0298239093C6
:101E20001A02089510921A020895809111020895DD
:101E300008950C94180F9091600292FD08C0909143
:101E40001102981721F0809311020C94190F089534
:101E500080911102882329F01092110280E00C94E5
:101E6000190F0895E0910001F091010180911C0289
:101E70008083E0910001F0910101808190911B022B
:101E8000892B8083E0910001F09101018081909184
:101E90001A02892B808390911102992381F0E0919D
:101EA0000001F09101018081892B808380910001E4
:101EB000909101010E947B1B81110E94280F80914B
:101EC0000001909101010C94361B08950C94650F4C
:101ED0009091600292FD10C098E0899F90011124BA
:101EE000622B609310020E94850A809110028595F2
:101EF000859585950C94660F0C94850A10921002B6
:101F000080E00C94660F9091100280958923809355
:101F10001002282F277039F4282F082E000C330BBD
:101F20009217130621F49091600292FF07C08595E5
:101F3000859585950E94900A0C947E0F08956FEF09
:101F40007FEF90E080E00C94702490E080E00E94AD
:101F50004C24893E9E4F11F40C94401680E0089565
:101F600082E090E00C94442483E090E00C944424BC
:101F7000CF9384E090E00E944424C82F82E290E056
:101F80000E944424982F8C2FCF910895CF93C92F6E
:101F9000682F84E090E00E9452246C2F82E290E04F
:101FA000CF910C945224AB01BC018FE090E00C94D3
:101FB0006424AB01BC0183E190E00C94642460E0F4
:101FC00070E0CB010C94D90F60E070E0CB010E946F
:101FD000D30F0C94DF0F69EE7EEF90E080E00E945B
:101FE000702460E082E090E00E94522460E083E090
:101FF00090E00E9452241092D70160E084E090E0CB
:102000000E94522460E082E290E00E94522460E04C
:1020100085E090E00E94522460E086E090E00E941B
:1020200052246FEF87E090E00E94522440E050E09D
:10203000BA0188E090E00E94642460E08DE090E0C6
:102040000E94522440E050E0BA0188E190E00E94F2
:10205000642460E087E190E00E94522440E050E078
:10206000BA018CE190E00E94642470E060E080E2BC
:1020700090E00E94702440E050E0BA0188E190E0D6
:102080000E94642480E00E9459160E947F160C94DE
:10209000E40F0C94EB0F682F8EE090E00C94522428
:1020A0000E945E1C6093320270933302809334026C
:1020B0009093350260932E0270932F02809330022A
:1020C00090933102089585B7806885BF85B7806891
:1020D00085BF0895089508950C946A1008950C948E
:1020E0006E100E9463108CE393E10E94AE1C0E946C
:1020F0006B100C946C1081E008950C947B10089583
:1021000008950E947F100C9480100E94491C0E9428
:102110008E160E94EF020C946F108F929F92AF92D6
:10212000BF92CF92DF92EF92FF920F931F93CF93C4
:10213000DF93CDB7DEB72A970FB6F894DEBF0FBE98
:10214000CDBF0E94770381110E9450105EE1852E61
:1021500052E0952E10E000E0A02E802F0E94E502B4
:102160006C01F401E190F1904F01E816F90609F4D1
:102170005CC08091360281FD0E94EE02C7018C2571
:102180009D25B12CEE24E394F12C9C012E213F21BE
:10219000232B09F444C00E947D108823A9F0BE823D
:1021A000AF82CE20DF2081E0CD2809F480E088874F
:1021B0000E94521C8160782F9A8789874E815F81A7
:1021C00068858A850E946E06000F111FF801E25E85
:1021D000FD4F80819181E826F926F182E0820E94FC
:1021E00026150E942A1B90911D028917A9F10E94B1
:1021F0002A1B80931D022A960FB6F894DEBF0FBEED
:10220000CDBFDF91CF911F910F91FF90EF90DF90A5
:10221000CF90BF90AF909F908F900C946606B39430
:10222000EE0CFF1CF9E0BF12B0CF0F5F1F4F08305C
:10223000110509F091CF8FEF89838A831B820E9459
:10224000521C8160782F9D838C8349815A816B81D8
:102250008D810E946E06C3CF2A960FB6F894DEBF1A
:102260000FBECDBFDF91CF911F910F91FF90EF90E7
:10227000DF90CF90BF90AF909F908F90089590E0A7
:1022800080E008950895FC01EE0FFF1FE456FC4F17
:10229000859194910895CF93DF930E946212EC018F
:1022A000811520E5920708F042C0811530E49307BC
:1022B00008F0BDC0883E910528F5803E910508F0E4
:1022C0009DC0883A910588F4853A910508F08FC041
:1022D0008130910509F492C0009709F48FC00497EA
:1022E00008F08CC0D0E0C0E089C08F3B910508F4B5
:1022F00089C0805C9109C03CD105A0F30E944311C4
:10230000EC017CC08115904250F4C11581E0D807E2
:1023100008F074C0C03FD10528F3D0656FC0C11567
:1023200090E3D90708F079C0CE019F70E7CF8115FF
:1023300025E5920758F5811534E5930708F0A6C006
:10234000811542E5940750F4C11581E5D80708F4DA
:1023500071C0DC2FCC27C16FD06A50C0982F9695E2
:1023600096959E0123703327C115D34508F07FC091
:10237000C1E0D0E002C0CC0FDD1F2A95E2F720E2D9
:10238000929FC0011124C82BD92B6FC0C11589E5BC
:10239000D807A8F4C11598E5D90708F07CC0C11585
:1023A00026E5D20708F09ECF8C2F0E94F912C82F85
:1023B000D0E0DC2FCC27CC27DF71D0621FC0C11545
:1023C0003AE5D30708F46CC0CE01905681159042CF
:1023D00008F088CF8D2F8F710E94F91290E0982F0E
:1023E000882788279F719C012C2BE901E6CFC55ACD
:1023F000D0E0CB57DE4FC881D0E0D064CE01DF9172
:10240000CF910895C85AD0E0CC0FDD1FC95ADE4FD6
:102410000990D881C02DD464F1CFCE019927D3FF84
:1024200003C0EC01D86CEACFEC01D06CE7CFDF70D1
:10243000D06AE4CFCE01E4E096958795EA95E1F77E
:1024400083702C2F26952695237090E2299F90016A
:102450001124382B8C2F8370C1E0D0E002C0CC0F48
:10246000DD1F8A95E2F7C22BD32BDC68C7CFC1E012
:10247000D0E002C0CC0FDD1F2A95E2F730E2939F37
:10248000C0011124C82BD92BDA68B8CFD82FCC279C
:10249000C46FD06AB3CFDC2FCC27C06FD06AAECF69
:1024A0008C2F8F700E94F91234E0D695C7953A951B
:1024B000E1F7CF709C2FEC01D069A0CF0E944F189C
:1024C0000C944B1182389105B1F1B0F48133910530
:1024D00009F475C048F48932910509F469C08A325B
:1024E000910509F473C008958533910509F459C025
:1024F0008933910501F10895833E9105A9F138F4DE
:10250000803E9105F9F0823E910549F10895863E9D
:102510009105A9F1873E9105C9F1843E910519F510
:102520002091600221FF1FC080915F0284FD14C0D2
:1025300087EE90E0089520915F022370A1F080EE75
:1025400090E0089520915F0220FD47C03091600225
:1025500030FF09C024FF44C090E080E004C0209117
:102560005F0222FDF7CF089520915F0222FD3BC05C
:102570003091600230FDE3CF24FFF5CFEDCF209105
:102580005F0223FFF0CF24FDE7CFD2CF20915F027F
:1025900023FD2CC03091600231FFEECF84EE90E03D
:1025A000089520915F0225FFDECF89E290E0089533
:1025B00020915F0225FFD7CF85E390E00895209119
:1025C0005F0226FFD0CF8AE290E0089520915F025B
:1025D00026FFC9CF81E390E0089589E390E0089554
:1025E00083EE90E0089582EE90E0089586EE90E00C
:1025F000089590915F0292FF06C0282F287128301D
:10260000F9F4877F846093FF06C0282F2871283152
:10261000F1F4877E84612091600220FF06C0382F8C
:1026200038713830D9F4877F816021FF06C0282FA8
:1026300028712831D1F4877E816194FD877E0895C9
:10264000282F24712430F9F68B7F8860DCCF282F67
:102650002471243101F78B7E8861DDCF382F3171F1
:10266000313019F78E7F8860E0CF282F217121311A
:1026700021F78E7E8861E1CF80E008950C949F0F52
:102680000E9477038FE39CE90197F1F700C00000F7
:102690000E94770380E00E94E50280FF04C00E9450
:1026A0003E130C949D1C08950C9440130E94A50F9A
:1026B000811102C00E9449100E94B00F809336021F
:1026C0000E94B80F9093600280935F020E9454139F
:1026D0000E94B40F0E945F0A8091D6010C94720A86
:1026E0000895FF920F931F93CF93DF93F82E092F36
:1026F000162FD72FC42F222349F081E0809339026F
:102700000E94521C909338028093370280913902C4
:102710008823A1F080913702909138020E946A1CB0
:10272000059760F0EF2DF02FA12FBD2F90E080E0F6
:10273000D0E08C179D0744F010923902DF91CF91C1
:102740001F910F91FF900895219131912D933D9309
:102750000196EFCF0E94CE1B0E94411E0E945A1E7E
:102760000E946C1E0E948110FBCF8091400280FF6E
:1027700012C06091070185E0689FB0011124759532
:1027800067957595679560387105A8F561157105B0
:10279000A1F1862F089581FF09C06091070185E0AE
:1027A000689FB001112475956795EDCF6091070181
:1027B00082FD0AC080913F028823D1F090910601EA
:1027C00060910701891728F085E0689FB001112406
:1027D000DACF869FB001112485E0869F9001879F04
:1027E000300D1124692F70E0C9010E940F24CBCF56
:1027F00065E070E0CECF8FE7089581E00895809185
:10280000400280FF0CC06091030170E075956795F0
:10281000759567956115710549F1862F089581FFBA
:1028200006C06091030170E075956795F3CF6091E4
:10283000030182FD0BC090913E029923A1F06091AB
:10284000020180910301961738F0682F70E060381C
:10285000710500F38FE70895899FC001112470E08E
:102860000E940F24F4CF61E070E0D7CF81E008959B
:10287000803F31F40E94B5138195809344020895FE
:10288000813F19F40E94B513F8CF823F31F40E94C2
:10289000B5138195809343020895833F19F40E94F4
:1028A000B513F8CF893F29F40E94FF1380934502A6
:1028B00008958A3F21F40E94FF138195F7CF8B3F43
:1028C00031F40E94FF1381958093460208958C3F56
:1028D00019F40E94FF13F8CF9CE0980F953070F424
:1028E000845F990B21E030E001C0220F8A95EAF75E
:1028F00080914202822B8093420208958D3F31F4F1
:102900008091400281608093400208958E3F21F4BF
:10291000809140028260F7CF8F3FB9F780914002EB
:102920008460F1CF40914302803F59F4809144028A
:1029300087FF0DC01092440241110BC010923F025C
:1029400008C0813F81F48091440218169CF344230F
:1029500081F08091450290914602892B09F05AC07E
:1029600010923E020895823F49F447FFF0CF109243
:102970004302809144028111ECCFE0CF833F19F4F0
:102980001416ACF3E4CF90914502893F29F419164F
:10299000F4F610924502DBCF8A3F19F497FFD7CFA8
:1029A000F8CF909146028B3F29F497FFD0CF109239
:1029B0004602CDCF8C3F19F41916CCF3C8CF9CE05A
:1029C000980F953090F4845F990B21E030E0B901C5
:1029D00002C0660F771F8A95E2F7CB018095909130
:1029E0004202892380934202B2CF8D3F31F480911D
:1029F00040028E7F80934002AACF8E3F21F48091C7
:102A000040028D7FF7CF8F3F09F0A1CF8091400228
:102A10008B7FF0CF08950E94521C9C01909143023D
:102A200080914402982B21F030933D0220933C0288
:102A30009091450280914602982B21F030933B0201
:102A400020933A0281E492E00C94411BEF92FF92B2
:102A50000F931F93CF93DF9300D000D000D0CDB75A
:102A6000DEB786E0E1E4F2E0DE01119601900D921E
:102A70008A95E1F7E0904302F0904402009145020C
:102A800010914602109243021092440210924502A5
:102A9000109246028E2D8F2991F080913C029091E8
:102AA0003D020E946A1CAC0190913F02992309F4F7
:102AB0003FC0809108018417150608F447C0802F95
:102AC000812B91F080913A0290913B020E946A1C06
:102AD000AC0190913E02992309F477C080910401E2
:102AE0008417150608F47FC0809143029091440238
:102AF000892B90914502892B90914602892B11F0E8
:102B00000E940B1586E0FE013196A1E4B2E001902F
:102B10000D928A95E1F726960FB6F894DEBF0FBEA8
:102B2000CDBFDF91CF911F910F91FF90EF9008954E
:102B3000209109018AE0289F90011124241735076C
:102B400008F0BDCF9F5F90933F0202C09F3FD1F737
:102B5000EE2059F00E94B5139FEF1E140CF491E083
:102B6000899F802D112480934302FF2059F00E94F9
:102B7000B5139FEF1F140CF491E0899F802D112451
:102B80008093440230914302332309F498CF20917B
:102B90004402222309F493CF45EB3403C0011124EE
:102BA000992359F09093430245EB2403900111249B
:102BB000332339F03093440282CF81E08093430283
:102BC000F3CF81E0809344027ACF209105018AE01F
:102BD000289F900111242417350708F085CF9F5FA7
:102BE00090933E0202C09F3FD1F7002359F00E940C
:102BF000FF139FEF10160CF491E0899F802D112494
:102C000080934502112359F00E94FF139FEF111684
:102C10000CF491E0899F802D11248093460230911D
:102C20004502332309F460CF20914602222309F4A0
:102C30005BCF45EB3403C0011124992359F09093E5
:102C4000450245EB240390011124332339F03093DE
:102C500046024ACF81E080934502F3CF81E0809322
:102C6000460242CF86E0E1E4F2E0DF011D928A9560
:102C7000E9F710923F0210923E021092400208952E
:102C800083E290E00E944424813289F484E290E05F
:102C90000E944424803159F485E290E00E9444244B
:102CA00091E0813309F090E0892F8170089580E0F0
:102CB000FCCFCF93C82F6FEF811161E283E290E0E8
:102CC0000E9452246FEFC11160E184E290E00E9403
:102CD00052246FEFC11161E385E290E0CF910C9433
:102CE0005224089586E290E00E944424682F70E008
:102CF00090E080E0089586E290E00C94522480E019
:102D00000E94591660E070E0CB010E947B160E9481
:102D1000C7170E94B31881E00C9459160E947116CF
:102D20000E944016811102C00C947F160895CF9323
:102D3000FB01C281CC2309F19C0122513F45203186
:102D4000310520F582510E94C318C0E08C2FCF912D
:102D5000089581E00E94850A43E062E081E00E94DC
:102D60001405F3CF81E00E94900A43E062E081E025
:102D70000E941405EBCF82E0F6CF8031FFE59F077C
:102D800089F381319F45B9F3C1E0E0CF8031EFE5B0
:102D90009E07F9F281319F45C9F682E0DBCF2FEF24
:102DA000FC0120830895EF92FF920F931F93CF931E
:102DB000DF93EC01062FE881E150E33108F05EC0BB
:102DC000F0E0EA55FB4D0C942324198289E08A83B4
:102DD000602FCE01DF91CF911F910F91FF90EF9067
:102DE0000C94361D8981823069F0833071F0813016
:102DF000D9F40E945E1C0E9429246A837B838C8301
:102E00009D83E6CF0E947216F6CF7E0110E0812FDF
:102E10000E94E502F701928383831F5FF2E0EF0EC9
:102E2000F11C1830A1F7D4CF602FCE010E94CF162D
:102E3000CFCF89818230C1F76A817B818C819D816E
:102E40000E9429240E947B16C3CF4B816A8189810D
:102E50000E9499179827892798279D838C83B8CF3C
:102E60002C813D813227232732274B816A8189813A
:102E70000E94B217ADCF0E94C717AACF8FEF8883E9
:102E8000A7CF0E945C188983A3CF0E945E18982761
:102E9000892798279A8389839BCF6B8170E08981EA
:102EA0009A81AE014C5F5F4F9827892798270E942F
:102EB00061188ECF6B8170E089819A81AE014C5F81
:102EC0005F4F9827892798270E94881881CF0E94F2
:102ED000B3187ECF0E948717D6CF6B8170E08981AF
:102EE0009A81AE014C5F5F4F9827892798270E94EF
:102EF000FF176ECF6B8170E089819A81AE014C5FC4
:102F00005F4F9827892798270E94251861CF84E072
:102F1000089550E0440F551F92E1699F400D511DE7
:102F2000112490E9899F400D511D1124CA018796F3
:102F300008950F931F93CF93DF930E9489178C01FD
:102F40000E944424C82FD0E0DC2FCC27C801019672
:102F50000E9444249E01282BC901DF91CF911F912B
:102F60000F9108950F931F93CF93DF93122F032F89
:102F70000E948917EC01602F0E945224612FCE011C
:102F80000196DF91CF911F910F910C945224AF9233
:102F9000BF92CF92DF92EF92FF921F93CF93DF9376
:102FA0008CEAC82E80E0D82ED0E07601C0E014C0B4
:102FB000F50125913491412F6C2F8D2F0E94B2176E
:102FC00082E0A80EB11C1F5F193091F782E1E80E74
:102FD000F11CCF5FC83019F0570110E0E9CFDF5F77
:102FE00080E9C80ED11CD43001F7DF91CF911F9139
:102FF000FF90EF90DF90CF90BF90AF900895EF9249
:10300000FF920F931F93CF93DF93EC018A017C0112
:10301000E60EF71ECE018796CE15DF0539F4DF9157
:10302000CF911F910F91FF90EF900895C03422E04F
:10303000D20740F40E944424F80180830F5F1F4FA1
:103040002196E8CFF8011082F9CFCF92DF92EF926C
:10305000FF920F931F93CF93DF937C016A018C0142
:10306000060F171FEC01CE018796C017D10749F450
:10307000DF91CF911F910F91FF90EF90DF90CF9054
:103080000895C03422E0D20740F4FE01EE19FF0992
:10309000EC0DFD1D60810E9452242196E4CF462F45
:1030A000843038F4783028F4693018F4672F0C94A1
:1030B000991790E080E0089580E1089589E991E012
:1030C0000895EF92FF920F931F93CF93DF93EC013C
:1030D0008A017C01E60EF71ECE0189599D4FCE155F
:1030E000DF0539F4DF91CF911F910F91FF90EF90A1
:1030F0000895C93921E0D20740F40E944424F80120
:1031000080830F5F1F4F2196E7CFF8011082F9CF20
:10311000CF92DF92EF92FF920F931F93CF93DF93A3
:103120007C016A018C01060F171FEC01CE01895941
:103130009D4FC017D10749F4DF91CF911F910F9197
:10314000FF90EF90DF90CF900895C93921E0D2072A
:1031500040F4FE01EE19FF09EC0DFD1D60810E9497
:1031600052242196E3CFCF93DF93C7E6D2E060E00D
:10317000CE010E9452242196C11584E0D807B9F7E8
:10318000DF91CF910895DF92EF92FF920F931F93FB
:10319000CF93DF9300D000D0CDB7DEB7F82E8FE00D
:1031A0008F1540F08FEF93E00E94442407E612E071
:1031B0008823C1F00F900F900F900F90DF91CF9167
:1031C0001F910F91FF90EF90DF900895011584E01B
:1031D000180781F3C8010E944424811101C0FA94A8
:1031E0000F5F1F4FF110F2CF19821A821B821C82CF
:1031F000DD24D39478018FEFE81AF80AC8010E9401
:10320000442489831A828823A9F29FEF980F933070
:1032100078F48A83D9820E5F1F4FC7010E9444242D
:103220008B83882339F2CE0101960E945B06E2CFA0
:103230008701F9CF0F931F93CF93DF93C42FD22F22
:10324000FC0182818823C9F0409349020E94521CEC
:10325000909348028093470280E28C0F883008F0F8
:1032600050C0C77081E001C0880FCA95EAF7DF91AE
:10327000CF911F910F910C94B8071091490214132C
:1032800035C080914702909148020E946A1C883C98
:10329000910560F5C0E2CD0F1D17B9F080E2810FF6
:1032A000883040F4177081E001C0880F1A95EAF762
:1032B0000E94BF07C83048F481E09D2F977001C07D
:1032C000880F9A95EAF70E94B807802F0E94B007EE
:1032D000C830B8F4D77081E001C0880FDA95EAF7FA
:1032E000DF91CF911F910F910C94BF0780E28C0F5B
:1032F000883038F4C77081E001C0880FCA95EAF7BA
:10330000EFCFDF91CF911F910F9108950F939C0103
:10331000CB01233F4CE5340759F1A8F4283DFCE5E7
:103320003F0701F1293D4CE53407D1F1273D3C45EC
:1033300091F406E221EE41EE67ED7CE50E941A1958
:1033400080E00F910895253FFCE53F07E9F0B0F0DC
:10335000263F3C45F9F0FC018281882339F1109227
:103360004902EFCF07E225EE45EE68ED7CE5E6CFBA
:1033700006E221EE40EE63EF7CE5E0CF07E225EECA
:1033800044EE64EF7CE5DACF06E221EE42EE65EF33
:103390007CE5D4CF07E225EE46EE66EF7CE5CECFA6
:1033A00008E221E045EE69ED7CE5C8CF81E0C9CFB8
:1033B000CF93DF93EC01FB018281882309F419C1CB
:1033C000C230FCE5DF07C0F1C6319CE5D90730F01B
:1033D0009E012A5F3C452930310570F50E94B80FE7
:1033E0009093600280935F02C031ECE5DE0709F440
:1033F000CFC008F05BC0C8308CE5D80709F4B6C070
:1034000088F5C430ECE5DE0709F4A8C0C0F4C2308A
:103410008CE5D80709F49CC080915F028260C330BC
:10342000DC4509F498C080915F02909160020E948F
:10343000C60F0E940C0A80E0DF91CF910895809121
:103440005F028061C630ECE5DE0709F484C080913C
:103450005F028860C730DC4508F47DC080915F0260
:10346000806279C0CC308CE5D80709F489C070F44B
:1034700080915F028C60CA30ECE5DE0709F46BC016
:1034800008F478C080915F028E7F65C0CE308CE5F5
:10349000D80709F479C080915F028B7FCF30DC457B
:1034A00008F459C080915F028F7E55C0CB3FECE598
:1034B000DE0709F457C030F5C3318CE5D80709F4AD
:1034C0006FC078F4C131ECE5DE0709F465C0C231A4
:1034D000DC4509F0A8CF0E940C0A80915F028F772B
:1034E0003AC0C5318CE5D80709F462C008F476C04B
:1034F000809160028160CA3FDC4509F094CF8093DF
:10350000600291CFCF3FFCE5DF0709F44DC088F49E
:10351000809160028D7FCD3F9CE5D90781F380913A
:1035200060028E7FCE3FDC4550F380916002836065
:10353000E6CFC130FDE5DF0709F459C008F444C007
:1035400080E0C230DD4509F06ECF0E944B106BCF9A
:1035500080915F02816080935F0265CF80915F02FE
:103560008460F9CF809160028260C9CF80915F0250
:103570008064F1CF0E940C0A80915F028068EBCFDB
:1035800080915F028D7FE7CF80915F02877FE3CFDD
:1035900080915F028F7DDFCF80915F028F7BDBCFD9
:1035A00080915F02837FD7CF809160028C7FA7CF0D
:1035B00080915F0282FB992790F921E0922790FB8E
:1035C00082F990FB83F9C7CF80916002982F909584
:1035D00091708E7F892B90FB81F991CF0E940C0A0C
:1035E00090915F02892F97FB87F98058B4CF81E0D3
:1035F000ACCF81E021CFCF93DF93EB0186319C45A7
:1036000011F50E94E20E9A81992399F08A7A91E04D
:1036100009F490E090934A02811109C089E20E9466
:103620009C0E0E94320F80E0DF91CF91089585E3D8
:10363000F6CF80914A02811104C089E20E94A30E54
:10364000F0CF85E3FBCF81E0EFCF909350028093E2
:103650004F020895E0914F02F0915002309721F00F
:103660000190F081E02D099480E00895E0914F02EF
:10367000F0915002309721F00280F381E02D0994FF
:103680000895E0914F02F0915002309739F022E016
:10369000DC012C930480F581E02D0994089520919C
:1036A0004D0230914E022817390771F090934E0267
:1036B00080934D02E0914F02F0915002309721F03B
:1036C0000680F781E02D0994089520914B023091F6
:1036D0004C022817390771F090934C0280934B02EB
:1036E000E0914F02F0915002309721F00084F18573
:1036F000E02D099408959C012E5F3F4FAC01485F77
:103700005F4F80E02417350709F40895F90191917E
:103710009F019923B9F38F5FF5CF662349F0FC0130
:10372000329608962191261729F0E817F907D1F764
:1037300080E0089581E008959C01FC0132969FEF9E
:1037400080E04191461751F09F3F19F4411101C0AB
:10375000982F8F5F8630A9F79F3F09F40895290FAE
:10376000311D97FD3A95F90162830895FC01329667
:1037700008962191261303C0DF0111971C92E817C8
:10378000F907B9F708950C949C1B0C94B61B02968C
:1037900026E0FC0111922A95E9F70895089508950D
:1037A00008950C94D01B80916902843049F10E94E5
:1037B000D11B80E00E9466061092510288E190E0E1
:1037C00020E40FB6F894A895809360000FBE209374
:1037D000600083B7817F846083BF83B7816083BFCC
:1037E0007894889583B78E7F83BF0FB6F894A89599
:1037F00080916000886180936000109260000FBE2D
:1038000008950895CF930E94CF1B0E9477030E94D2
:10381000011CC0E08C2F0E94E502892B31F4CF5FA0
:10382000C830C1F780E0CF91089581E0FCCF0895C2
:103830000C94171C0E940C0A0E942A1B0E94660608
:103840000C94181C1F921FB61F9211248F939F93E4
:10385000AF93BF9380915102811113C08091610297
:1038600090916202A0916302B09164024196A11D01
:10387000B11D8093610290936202A0936302B093A2
:103880006402BF91AF919F918F911F901FBE1F90B7
:10389000189582E084BD93E095BD9AEF97BD809323
:1038A0006E0008952FB7F8948091610290916202A2
:1038B000A0916302B09164022FBF08952FB7F894CE
:1038C0006091610270916202809163029091640242
:1038D0002FBF08959C014FB7F89480916102909199
:1038E0006202A0916302B09164024FBF821B930BEE
:1038F000089578941F921FB61F9211248F939F935F
:10390000AF93BF938091610290916202A091630294
:10391000B09164020196A11DB11D80936102909344
:103920006202A0936302B0936402BF91AF919F9132
:103930008F911F901FBE1F90189587E797E7909370
:1039400001088093000888E19AE00FB6F894A895E2
:10395000809360000FBE90936000FFCF9093990119
:1039600080939801089580915D0208959091690275
:10397000943029F58093520270935402609353025D
:103980009093E9008FEF9091E800815095FD06C07B
:1039900095ED9A95F1F700008111F5CF8091E8003F
:1039A00085FF0DC050E040E063E070E082E592E00A
:1039B0000E942F1F8091E8008E778093E800089581
:1039C000BC0184E00C94B61CBC0183E00C94B61CD2
:1039D0009C0184E08093E9009FEF8091E800915082
:1039E00085FD06C085ED8A95F1F700009111F5CFB0
:1039F0008091E80085FF0CC050E040E066E070E098
:103A0000C9010E942F1F8091E8008E778093E80003
:103A10000895CF93DF93EC0181E08093E9008FEF6D
:103A20009091E800815095FD06C095ED9A95F1F7CB
:103A300000008111F5CF8091E80085FF14C050E0AF
:103A400040E068E070E0CE010E942F1F8091E80006
:103A50008E778093E80088E0FE01A5E5B2E0019052
:103A60000D928A95E1F7DF91CF910895CF93FC01F4
:103A7000603221F580916902843001F5C091E9003E
:103A8000CF702091EC00922F917020FD90E8C92B0F
:103A900082E08093E9008091E80080FF0CC050E054
:103AA00040E060E270E0CF010E942F1F8091E800AB
:103AB0008E778093E800CF70C093E900CF9108958E
:103AC00080916802811109C00E940E210E946B2121
:103AD0008091E20084608093E20008951092680271
:103AE000089508950895089542E061EC81E00E94F0
:103AF0008A2042E261EC84E00E948A2042E261EC8A
:103B000082E00E948A2042E260EC83E00C948A20EA
:103B100080916B02833009F461C030F48130D1F1BF
:103B2000823009F49DC008958A3009F489C08B3031
:103B300009F46FC0893009F050C080916A02813267
:103B400009F04BC080916E0290916F02009719F0BE
:103B5000029709F042C08091E800877F8093E800D7
:103B60008091E80082FF35C09091F3008091F200CF
:103B7000029729F48091F1008B7F813021F48091AC
:103B8000F10080935D028091E8008B778093E800DC
:103B90000C94BE2080916A02813AF9F48091E80089
:103BA000877F8093E80080916E0290916F02892B4D
:103BB00061F468E085E592E070E00E94CD1F80919D
:103BC000E8008B778093E800089560E090E080E063
:103BD000F3CF809169028111C3CF089580916A0269
:103BE000813AD9F780916E0290916F02892BA9F7E3
:103BF0008091E800877F8093E8008091E80080FF53
:103C0000FCCF809114018093F1008091E8008E77C1
:103C1000BDCF80916A02813201F780916E0290914E
:103C20006F02892BD1F68091E800877F8093E800AE
:103C30000E94BE2080916C02809314010C940C0AA7
:103C400080916A02813249F68091E800877F8093F3
:103C5000E8000E94BE2080916D0280935E0208956C
:103C600080916A02813A09F0B8CF8091E800877F9D
:103C70008093E8008091E80080FFFCCF80915E0295
:103C8000C2CF84B7877F84BF0FB6F894A895809180
:103C90006000886180936000109260000FBE80E831
:103CA00090E00FB6F89480936100909361000FBE8E
:103CB0000C9471100E940E210E946B21E2EEF0E044
:103CC00080818460808378940E94F4230E94851010
:103CD0008AE091E00C94251BCF93DF93CDB7DEB73C
:103CE000A0970FB6F894DEBF0FBECDBF80916902DA
:103CF000853031F480916902853091F10E941A1C5F
:103D00000E948D1080916902843009F583E08093D0
:103D1000E9008091E80082FF1AC08091E80090E0FD
:103D200085FF09C050E040E060E270E0CE010196FE
:103D30000E947E1F91E08091E8008B778093E800DD
:103D4000992329F060E2CE0101960E94D316A09635
:103D50000FB6F894DEBF0FBECDBFDF91CF910895AF
:103D60000E94D31B80916702882321F20E94021CCB
:103D7000882309F4BFCF0E94191F0E940C0ABACFF2
:103D80000C94C21E292F33272330310521F168F40A
:103D90002130310509F443C02230310509F444C013
:103DA00090E080E030E020E026C02132310551F182
:103DB00022323105A9F76330710590F7FB01EE0F50
:103DC000FF1FE557FE4F2081318168577E4FFB0171
:103DD000808190E010C099278130910581F0009793
:103DE00029F00297E9F6ECE9F3E002C0EEEDF3E02A
:103DF000849190E09F01FA01318320830895EAECD9
:103E0000F3E0F6CF6330710558F6660F771FFB01BC
:103E1000EF56FE4F2081318189E090E0ECCF82E1C6
:103E200090E02DE334E0E7CF8BE590E022EE33E045
:103E3000E2CF80E189BD82E189BD09B400FEFDCFFA
:103E40008091D8008F7D8093D8008091E0008260BF
:103E50008093E0008091E00081FDFCCF0895AF9257
:103E6000BF92CF92DF92FF920F931F93CF93DF9376
:103E70006C01EB018A010E94DD20F82E811123C024
:103E80000115110539F0F80180819181C81BD90B0A
:103E9000C80ED91EB12CA12C2097A9F08091E80062
:103EA00085FD22C08091E8008E778093E80001159F
:103EB0001105A1F0F80180819181A80EB91EB1828F
:103EC000A08285E0F82E8F2DDF91CF911F910F9169
:103ED000FF90DF90CF90BF90AF9008950E94DD20BB
:103EE0008823D1F2F82EEFCFF60181916F018093F4
:103EF000F1002197FFEFAF1ABF0ACECFAF92BF926A
:103F0000CF92DF92FF920F931F93CF93DF936C01B9
:103F1000EB018A010E94DD20F82E811123C00115DA
:103F2000110539F0F80180819181C81BD90BC80EA9
:103F3000D91EB12CA12C2097A9F08091E80085FD15
:103F400022C08091E8008B778093E800011511056D
:103F5000A1F0F80180819181A80EB91EB182A082E2
:103F600085E0F82E8F2DDF91CF911F910F91FF905B
:103F7000DF90CF90BF90AF9008950E94DD208823FE
:103F8000D1F2F82EEFCF8091F100F60181936F010D
:103F90002197FFEFAF1ABF0ACECFFC0180917002CC
:103FA0009091710286179707A0F06115710529F4A9
:103FB0009091E8009E779093E80090E0611571057C
:103FC00051F4911108C08091E80082FF34C080E074
:103FD0000895BC01F2CF809169028823C1F1853038
:103FE000C1F18091E80083FD30C08091E80082FD3E
:103FF000EACF8091E80080FFE1CF8091F30020912B
:10400000F200382F6115710519F02830310558F08C
:1040100091E02830310509F090E02091E8002E77FA
:104020002093E800CBCF81918093F100615071091A
:104030002F5F3F4FE7CF80916902882341F08530A1
:1040400041F08091E80083FFBECF81E0089582E0D7
:10405000089583E00895FC018091700290917102AF
:1040600086179707A0F06115710529F48091E80083
:104070008E778093E80090E06115710551F49111FD
:1040800008C08091E80082FF35C080E00895BC013F
:10409000F2CF809169028823C9F18530C9F18091FE
:1040A000E80083FD31C08091E80082FDEACF809175
:1040B000E80080FFE1CF8091F3002091F200382FDB
:1040C0006115710519F02830310558F091E028305C
:1040D000310509F090E08091E8008E778093E80048
:1040E000CBCF84918093F1003196615071092F5F9D
:1040F0003F4FE6CF80916902882341F0853041F03F
:104100008091E80083FFBDCF81E0089582E00895AB
:1041100083E00895982F973028F08F708093E900FE
:1041200081E008959093E900242F762F50E09817AE
:1041300031F07091EC002091ED005091F00021FDE4
:1041400002C09F5FE8CF3091EB003E7F3093EB00E1
:104150003091ED003D7F3093ED003091EB00316008
:104160003093EB007093EC002093ED005093F0003F
:104170002091EE0027FDE5CF80E0089580916A024E
:1041800087FF13C08091E80082FF06C08091E8009D
:104190008B778093E80004C0809169028111F2CF8F
:1041A0000895809169028823D9F38091E80080FF07
:1041B000F8CF8091E8008E77ECCF2091E400309129
:1041C000E50095E6A9012091EC00822F817020FF87
:1041D00006C08091E80080FF06C080E0089520912D
:1041E000E80022FD1AC080916902882389F0853099
:1041F00089F08091EB0085FD0FC02091E4003091A3
:10420000E50042175307F9F29150E1F684E0089572
:1042100082E0089583E0089581E008950E947C2162
:104220000E948421E0EEF0E0808181608083E8EDEF
:10423000F0E080818F77808319BCA7EDB0E08C918E
:104240008E7F8C9380818F7E808310926802089588
:104250000F931F93CF93DF930E947C210E948421B0
:10426000C8EDD0E088818F778883888180688883D3
:1042700088818F7D888319BC109269021092650233
:10428000109267021092660200EE10E0F801808141
:104290008B7F808388818160888342E060E080E05A
:1042A0000E948A20E1EEF0E080818E7F8083E2EE42
:1042B000F0E0808181608083808188608083F80164
:1042C00080818E7F8083888180618883DF91CF9118
:1042D0001F910F910895E8EDF0E080818F7E80833B
:1042E000E7EDF0E080818160808384E082BF81E03F
:1042F000809368020C942821E8EDF0E080818E7FA5
:1043000080831092E20008951092DA001092E1008A
:1043100008951F920F920FB60F9211242F933F937F
:104320004F935F936F937F938F939F93AF93BF93BD
:10433000EF93FF938091E10082FF0BC08091E20038
:1043400082FF07C08091E1008B7F8093E1000E9493
:10435000F3238091DA0080FF19C08091D80080FF9C
:1043600015C08091DA008E7F8093DA008091D900A9
:1043700080FF96C080E189BD82E189BD09B400FE5D
:10438000FDCF81E0809369020E94601D8091E10071
:1043900080FF19C08091E20080FF15C08091E2008B
:1043A0008E7F8093E2008091E20080618093E20042
:1043B0008091D80080628093D80019BC85E08093FA
:1043C00069020E94721D8091E10084FF2BC08091E0
:1043D000E20084FF27C080E189BD82E189BD89B503
:1043E000982F917080FFFBCF8091D8008F7D8093B4
:1043F000D8008091E1008F7E8093E1008091E200FF
:104400008F7E8093E2008091E20081608093E200E1
:1044100080916502882309F449C084E08093690291
:104420000E94731D8091E10083FF29C08091E2000A
:1044300083FF25C08091E100877F8093E10082E0C7
:1044400080936902109265028091E1008E7F8093D3
:10445000E1008091E2008E7F8093E2008091E20093
:1044600080618093E20042E060E080E00E948A2068
:104470008091F00088608093F0000E94711DFF9190
:10448000EF91BF91AF919F918F917F916F915F91CC
:104490004F913F912F910F900FBE0F901F90189545
:1044A00019BC109269020E946E1D70CF8091E300CA
:1044B00087FD93E090936902B3CF1F920F920FB6DE
:1044C0000F9211242F933F934F935F936F937F939A
:1044D0008F939F93AF93BF93CF93DF93EF93FF930C
:1044E000D091E900DF708091EC00C82FC17080FD91
:1044F000C0E81092E9008091F000877F8093F0007F
:1045000078940E94A1221092E9008091F0008860C6
:104510008093F000CD2BCF70C093E900FF91EF9115
:10452000DF91CF91BF91AF919F918F917F916F91CB
:104530005F914F913F912F910F900FBE0F901F9061
:1045400018951F93CF93DF93CDB7DEB7AA970FB619
:10455000F894DEBF0FBECDBF8AE692E02091F10055
:10456000FC012193CF01F2E082379F07B9F70E9447
:10457000881D8091E80083FF1EC180916A0290919E
:104580006B029A3008F017C1E92FF0E0E754FB4DB9
:104590000C942324803899F0823809F00CC1809162
:1045A0006E028F70873008F006C18093E900809119
:1045B000EB0085FB882780F91092E90006C0809106
:1045C000660290916702911182609091E800977F56
:1045D0009093E8008093F1001092F1008091E80040
:1045E0008E77E5C0882309F4D3C0823009F0E3C098
:1045F00080916C028111D6C080916E028F702FEF76
:10460000280F263008F0D7C08093E9002091EB00F6
:1046100020FFC8C0933031F48091EB00806280931A
:10462000EB00C0C09091EB0090619093EB0021E013
:1046300030E001C0220F8A95EAF72093EA00109239
:10464000EA008091EB008860EACF8111B4C010913C
:104650006C021F778091E3008078812B8093E300C8
:104660008091E800877F8093E8000E94BE208091BF
:10467000E80080FFFCCF8091E30080688093E30036
:1046800082E0111183E08093690295C080588230E6
:1046900008F091C080916C0290916D028C3D23E0F6
:1046A0009207A1F583E08A838AE289834FB7F89461
:1046B000DE01139620E03EE051E2E32FF0E050935C
:1046C0005700E49120FF03C0E295EF703F5FEF7069
:1046D0008E2F90E0EA30C0F0C7968D939D932F5FA8
:1046E000243159F74FBF8091E800877F8093E8001D
:1046F0006AE270E0CE0101960E94CD1F8091E80031
:104700008B778093E80057C0C096E7CF60916E0228
:1047100070916F02AE014F5F5F4F0E94C01EBC01DF
:10472000892B09F448C09091E800977F9093E800A6
:1047300089819A810E942B20E1CF8038E1F5809118
:10474000E800877F8093E800809165028093F10004
:1047500045CF811130C090916C02923060F580910C
:10476000E800877F8093E800909365020E94BE2056
:1047700080916502882311F084E005C08091E300F8
:1047800087FDFACF81E0809369020E94741D13C0F7
:1047900080916C02813079F481E0933009F080E0FF
:1047A000809367021092E9008091E800877F8093F0
:1047B000E8000E94BE208091E80083FF0AC080913B
:1047C000E800877F8093E8008091EB00806280930F
:1047D000EB00AA960FB6F894DEBF0FBECDBFDF91F7
:1047E000CF911F9108950895CF93809169028823F6
:1047F000A1F0C091E900CF709091EC00892F8170F9
:1048000090FD80E8C82B1092E9008091E80083FDBC
:104810000E94A122CF70C093E900CF91089597FB29
:10482000072E16F4009407D077FD09D00E9430249B
:1048300007FC05D03EF4909581959F4F08957095A3
:1048400061957F4F0895EE0FFF1F0590F491E02DC5
:104850000994692796276927782787277827089555
:10486000AA1BBB1B51E107C0AA1FBB1FA617B70796
:1048700010F0A61BB70B881F991F5A95A9F78095B2
:104880009095BC01CD010895F999FECF92BD81BDEF
:10489000F89A992780B50895A8E1B0E042E050E089
:1048A0000C947824262FF999FECF92BD81BDF89AF9
:1048B000019700B4021639F01FBA20BD0FB6F89464
:1048C000FA9AF99A0FBE08950396272F0E9453244F
:1048D0000E945224252F0E945324242F0C945324E9
:1048E0000196272F0E9453240C945224DC01CB0103
:1048F000FC01F999FECF06C0F2BDE1BDF89A3196F0
:1049000000B40D9241505040B8F70895F894FFCF8D
:10491000FA07FA0752085208A408C008270827080F
:10492000CB083209410941099D0927082708A60932
:104930001B0A1B0A240A240A260A240A240A240A17
:104940001B0A1B0A2B0A240A240A2B0AE516F21654
:104950001917251730173B173E173E173E173E17FE
:104960003E17411745174D175A1767176A176D17E6
:104970007A17CA22F222DB23F222DB2325234623E5
:06498000DB239D23A923A7
:1049860012022808641E140A321EB31C091DE81CF4
:10499600E41CE01C01343536323331F7F6F5946603
:1049A60097C600000000E200E900EA00B500B60084
:1049B600B700CD008301CC008A0192019401210247
:1049C600230224022502260227022A02B300B4008B
:1049D6006F007000818283E200E900EA00B500B64C
:1049E60000B700CD008301CC008A01920194012119
:1049F60002230224022502260227022A02B300B459
:104A0600006F00700081828340227BEC044F0471AA
:084A160004F4030D042D04005B
:00000001FF
